{
  "_format": "hh-sol-artifact-1",
  "contractName": "ERC20Bridge",
  "sourceName": "contracts/TokenBridge.sol",
  "abi": [
    {
      "inputs": [
        {
          "internalType": "contract IStarknetCore",
          "name": "starknetCore_",
          "type": "address"
        },
        {
          "internalType": "uint256",
          "name": "bridge_l2_address_",
          "type": "uint256"
        },
        {
          "internalType": "address",
          "name": "bridgeContractAdmin_",
          "type": "address"
        }
      ],
      "stateMutability": "nonpayable",
      "type": "constructor"
    },
    {
      "inputs": [],
      "name": "DEPOSIT_SELECTOR",
      "outputs": [
        {
          "internalType": "uint256",
          "name": "",
          "type": "uint256"
        }
      ],
      "stateMutability": "view",
      "type": "function"
    },
    {
      "inputs": [],
      "name": "bridgeContractAdmin",
      "outputs": [
        {
          "internalType": "address",
          "name": "",
          "type": "address"
        }
      ],
      "stateMutability": "view",
      "type": "function"
    },
    {
      "inputs": [],
      "name": "bridge_l2_address",
      "outputs": [
        {
          "internalType": "uint256",
          "name": "",
          "type": "uint256"
        }
      ],
      "stateMutability": "view",
      "type": "function"
    },
    {
      "inputs": [
        {
          "internalType": "uint256",
          "name": "amount",
          "type": "uint256"
        }
      ],
      "name": "deposit_to_l1",
      "outputs": [],
      "stateMutability": "nonpayable",
      "type": "function"
    },
    {
      "inputs": [],
      "name": "my_balance",
      "outputs": [
        {
          "internalType": "uint256",
          "name": "",
          "type": "uint256"
        }
      ],
      "stateMutability": "view",
      "type": "function"
    },
    {
      "inputs": [
        {
          "internalType": "contract IERC20",
          "name": "l1_token_address",
          "type": "address"
        }
      ],
      "name": "set_l1_token",
      "outputs": [],
      "stateMutability": "nonpayable",
      "type": "function"
    },
    {
      "inputs": [
        {
          "internalType": "address",
          "name": "l2_user_address",
          "type": "address"
        }
      ],
      "name": "withdraw_to_l2",
      "outputs": [],
      "stateMutability": "payable",
      "type": "function"
    }
  ],
  "bytecode": "0x608060405234801561001057600080fd5b5060405161079838038061079883398101604081905261002f9161007e565b600080546001600160a01b039485166001600160a01b031991821617909155600292909255600380549190931691161790556100c1565b6001600160a01b038116811461007b57600080fd5b50565b60008060006060848603121561009357600080fd5b835161009e81610066565b6020850151604086015191945092506100b681610066565b809150509250925092565b6106c8806100d06000396000f3fe6080604052600436106100705760003560e01c80632e549e621161004e5780632e549e62146100f45780638f00750b14610146578063a3d9f33314610166578063f8167eb81461017957600080fd5b806304125f861461007557806312e9f5631461009e5780631a3609dd146100d2575b600080fd5b34801561008157600080fd5b5061008b60025481565b6040519081526020015b60405180910390f35b3480156100aa57600080fd5b5061008b7f029f82405685661150310f973ed893005e3aa77a7f37e3c1e88c469babfba1ca81565b3480156100de57600080fd5b506100f26100ed366004610589565b61018e565b005b34801561010057600080fd5b506003546101219073ffffffffffffffffffffffffffffffffffffffff1681565b60405173ffffffffffffffffffffffffffffffffffffffff9091168152602001610095565b34801561015257600080fd5b506100f26101613660046105ad565b6101f9565b6100f2610174366004610589565b610389565b34801561018557600080fd5b5061008b6104c7565b60035473ffffffffffffffffffffffffffffffffffffffff1633146101b257600080fd5b600180547fffffffffffffffffffffffff00000000000000000000000000000000000000001673ffffffffffffffffffffffffffffffffffffffff92909216919091179055565b604080516002808252606082018352339260009291906020830190803683370190505090508181600081518110610232576102326105c6565b6020026020010181815250508281600181518110610252576102526105c6565b60209081029190910101526000546002546040517f2c9dd5c000000000000000000000000000000000000000000000000000000000815273ffffffffffffffffffffffffffffffffffffffff90921691632c9dd5c0916102b6918590600401610630565b6020604051808303816000875af11580156102d5573d6000803e3d6000fd5b505050506040513d601f19601f820116820180604052508101906102f99190610651565b506001546040517f40c10f190000000000000000000000000000000000000000000000000000000081523360048201526024810185905273ffffffffffffffffffffffffffffffffffffffff909116906340c10f1990604401600060405180830381600087803b15801561036c57600080fd5b505af1158015610380573d6000803e3d6000fd5b50505050505050565b60408051600280825260608201835273ffffffffffffffffffffffffffffffffffffffff841692600092919060208301908036833701905050905081816000815181106103d8576103d86105c6565b60200260200101818152505034816001815181106103f8576103f86105c6565b60209081029190910101526000546002546040517f3e3aa6c500000000000000000000000000000000000000000000000000000000815273ffffffffffffffffffffffffffffffffffffffff90921691633e3aa6c59161047e917f029f82405685661150310f973ed893005e3aa77a7f37e3c1e88c469babfba1ca90869060040161066a565b6020604051808303816000875af115801561049d573d6000803e3d6000fd5b505050506040513d601f19601f820116820180604052508101906104c19190610651565b50505050565b6001546040517f70a08231000000000000000000000000000000000000000000000000000000008152336004820152600091829173ffffffffffffffffffffffffffffffffffffffff909116906370a0823190602401602060405180830381865afa15801561053a573d6000803e3d6000fd5b505050506040513d601f19601f8201168201806040525081019061055e9190610651565b92915050565b73ffffffffffffffffffffffffffffffffffffffff8116811461058657600080fd5b50565b60006020828403121561059b57600080fd5b81356105a681610564565b9392505050565b6000602082840312156105bf57600080fd5b5035919050565b7f4e487b7100000000000000000000000000000000000000000000000000000000600052603260045260246000fd5b600081518084526020808501945080840160005b8381101561062557815187529582019590820190600101610609565b509495945050505050565b82815260406020820152600061064960408301846105f5565b949350505050565b60006020828403121561066357600080fd5b5051919050565b83815282602082015260606040820152600061068960608301846105f5565b9594505050505056fea26469706673582212207961a1f8aa949c60c92c1d58b47afa169d6b421b2c30eabdf7cb4e57fbf5a95964736f6c63430008110033",
  "linkReferences": {},
  "deployedLinkReferences": {}
}