{
  "_format": "hh-sol-artifact-1",
  "contractName": "ERC20Bridge",
  "sourceName": "contracts/TokenBridge.sol",
  "abi": [
    {
      "inputs": [
        {
          "internalType": "contract IStarknetCore",
          "name": "starknetCore_",
          "type": "address"
        },
        {
          "internalType": "uint256",
          "name": "bridge_l2_address_",
          "type": "uint256"
        },
        {
          "internalType": "address",
          "name": "bridgeContractAdmin_",
          "type": "address"
        }
      ],
      "stateMutability": "nonpayable",
      "type": "constructor"
    },
    {
      "inputs": [],
      "name": "DEPOSIT_SELECTOR",
      "outputs": [
        {
          "internalType": "uint256",
          "name": "",
          "type": "uint256"
        }
      ],
      "stateMutability": "view",
      "type": "function"
    },
    {
      "inputs": [],
      "name": "bridgeContractAdmin",
      "outputs": [
        {
          "internalType": "address",
          "name": "",
          "type": "address"
        }
      ],
      "stateMutability": "view",
      "type": "function"
    },
    {
      "inputs": [],
      "name": "bridge_l2_address",
      "outputs": [
        {
          "internalType": "uint256",
          "name": "",
          "type": "uint256"
        }
      ],
      "stateMutability": "view",
      "type": "function"
    },
    {
      "inputs": [
        {
          "internalType": "uint256",
          "name": "amount",
          "type": "uint256"
        }
      ],
      "name": "deposit_to_l1",
      "outputs": [],
      "stateMutability": "nonpayable",
      "type": "function"
    },
    {
      "inputs": [
        {
          "internalType": "address",
          "name": "user",
          "type": "address"
        }
      ],
      "name": "my_balance",
      "outputs": [
        {
          "internalType": "uint256",
          "name": "",
          "type": "uint256"
        }
      ],
      "stateMutability": "view",
      "type": "function"
    },
    {
      "inputs": [
        {
          "internalType": "contract IERC20",
          "name": "l1_token_address",
          "type": "address"
        }
      ],
      "name": "set_l1_token",
      "outputs": [],
      "stateMutability": "nonpayable",
      "type": "function"
    },
    {
      "inputs": [
        {
          "internalType": "uint256",
          "name": "l2_user_address",
          "type": "uint256"
        },
        {
          "internalType": "uint256",
          "name": "amount",
          "type": "uint256"
        }
      ],
      "name": "withdraw_to_l2",
      "outputs": [],
      "stateMutability": "payable",
      "type": "function"
    }
  ],
  "bytecode": "0x608060405234801561001057600080fd5b506040516109da3803806109da83398101604081905261002f9161007e565b600080546001600160a01b039485166001600160a01b031991821617909155600292909255600380549190931691161790556100c1565b6001600160a01b038116811461007b57600080fd5b50565b60008060006060848603121561009357600080fd5b835161009e81610066565b6020850151604086015191945092506100b681610066565b809150509250925092565b61090a806100d06000396000f3fe6080604052600436106100705760003560e01c80631a3609dd1161004e5780631a3609dd146100e75780632e549e62146101075780636e8e33ab146101595780638f00750b1461017957600080fd5b806304125f861461007557806312e9f5631461009e5780631801c41f146100d2575b600080fd5b34801561008157600080fd5b5061008b60025481565b6040519081526020015b60405180910390f35b3480156100aa57600080fd5b5061008b7f029f82405685661150310f973ed893005e3aa77a7f37e3c1e88c469babfba1ca81565b6100e56100e036600461078b565b610199565b005b3480156100f357600080fd5b506100e56101023660046107d2565b6104bc565b34801561011357600080fd5b506003546101349073ffffffffffffffffffffffffffffffffffffffff1681565b60405173ffffffffffffffffffffffffffffffffffffffff9091168152602001610095565b34801561016557600080fd5b5061008b6101743660046107d2565b610527565b34801561018557600080fd5b506100e56101943660046107ef565b6105c6565b6001546040517f70a0823100000000000000000000000000000000000000000000000000000000815233600482015260009173ffffffffffffffffffffffffffffffffffffffff16906370a0823190602401602060405180830381865afa158015610208573d6000803e3d6000fd5b505050506040513d601f19601f8201168201806040525081019061022c9190610808565b9050818110156102c2576040517f08c379a000000000000000000000000000000000000000000000000000000000815260206004820152603860248201527f544f4b454e5f4252494447453a205468652073706563696669656420616d6f7560448201527f6e74206578636565647320796f75722062616c616e6365210000000000000000606482015260840160405180910390fd5b6001546040517f9dc29fac0000000000000000000000000000000000000000000000000000000081523360048201526024810184905273ffffffffffffffffffffffffffffffffffffffff90911690639dc29fac90604401600060405180830381600087803b15801561033457600080fd5b505af1158015610348573d6000803e3d6000fd5b5060009250600391506103589050565b604051908082528060200260200182016040528015610381578160200160208202803683370190505b509050838160008151811061039857610398610821565b60209081029190910101526fffffffffffffffffffffffffffffffff8316608084901c826001815181106103ce576103ce610821565b60200260200101836002815181106103e8576103e8610821565b6020908102919091010191909152526000546002546040517f3e3aa6c500000000000000000000000000000000000000000000000000000000815273ffffffffffffffffffffffffffffffffffffffff90921691633e3aa6c591610472917f029f82405685661150310f973ed893005e3aa77a7f37e3c1e88c469babfba1ca90869060040161088b565b6020604051808303816000875af1158015610491573d6000803e3d6000fd5b505050506040513d601f19601f820116820180604052508101906104b59190610808565b5050505050565b60035473ffffffffffffffffffffffffffffffffffffffff1633146104e057600080fd5b600180547fffffffffffffffffffffffff00000000000000000000000000000000000000001673ffffffffffffffffffffffffffffffffffffffff92909216919091179055565b6001546040517f70a0823100000000000000000000000000000000000000000000000000000000815273ffffffffffffffffffffffffffffffffffffffff838116600483015260009283929116906370a0823190602401602060405180830381865afa15801561059b573d6000803e3d6000fd5b505050506040513d601f19601f820116820180604052508101906105bf9190610808565b9392505050565b6040805160038082526080820190925233916000919060208201606080368337019050509050818160008151811061060057610600610821565b60209081029190910101526fffffffffffffffffffffffffffffffff8316608084901c8260018151811061063657610636610821565b602002602001018360028151811061065057610650610821565b6020908102919091010191909152526000546002546040517f2c9dd5c000000000000000000000000000000000000000000000000000000000815273ffffffffffffffffffffffffffffffffffffffff90921691632c9dd5c0916106b89185906004016108b3565b6020604051808303816000875af11580156106d7573d6000803e3d6000fd5b505050506040513d601f19601f820116820180604052508101906106fb9190610808565b506001546040517f40c10f190000000000000000000000000000000000000000000000000000000081523360048201526024810185905273ffffffffffffffffffffffffffffffffffffffff909116906340c10f1990604401600060405180830381600087803b15801561076e57600080fd5b505af1158015610782573d6000803e3d6000fd5b50505050505050565b6000806040838503121561079e57600080fd5b50508035926020909101359150565b73ffffffffffffffffffffffffffffffffffffffff811681146107cf57600080fd5b50565b6000602082840312156107e457600080fd5b81356105bf816107ad565b60006020828403121561080157600080fd5b5035919050565b60006020828403121561081a57600080fd5b5051919050565b7f4e487b7100000000000000000000000000000000000000000000000000000000600052603260045260246000fd5b600081518084526020808501945080840160005b8381101561088057815187529582019590820190600101610864565b509495945050505050565b8381528260208201526060604082015260006108aa6060830184610850565b95945050505050565b8281526040602082015260006108cc6040830184610850565b94935050505056fea2646970667358221220d180e4f6b2a08fc9f553a7245d24586082a4e7f8985477ca4c285bb788c5eb6c64736f6c63430008110033",
  "linkReferences": {},
  "deployedLinkReferences": {}
}